:020000021000EC
:10C0000000000220B1C20100D9C20100DBC2010060
:10C01000DDC20100DFC20100E1C20100000000003A
:10C02000000000000000000000000000E3C201006A
:10C03000E5C2010000000000E7C20100E9C2010002
:10C04000EBC20100EBC20100EBC20100EBC2010038
:10C05000EBC20100EBC20100EBC20100EBC2010028
:10C06000EBC20100EBC20100EBC20100EBC2010018
:10C07000EBC20100EBC20100EBC20100EBC2010008
:10C08000EBC20100EBC20100EBC20100EBC20100F8
:10C09000EBC20100EBC20100EBC20100EBC20100E8
:10C0A000EBC20100EBC20100EBC20100EBC20100D8
:10C0B000EBC20100EBC20100000000000000000024
:10C0C000EBC20100EBC20100EBC20100EBC20100B8
:10C0D000EBC20100EBC20100EBC20100EBC20100A8
:10C0E000EBC20100EBC20100EBC201000000000046
:10C0F00000000000EBC2010000000000EBC20100E4
:10C10000000000000000000000000000000000002F
:10C11000000000000000000000000000000000001F
:10C12000000000000000000000000000000000000F
:10C1300000000000000000000000000000000000FF
:10C1400000000000000000000000000000000000EF
:10C1500000000000000000000000000000000000DF
:10C1600000000000000000000000000000000000CF
:10C1700000000000000000000000000000000000BF
:10C1800000000000000000000000000000000000AF
:10C19000000000000000000000000000000000009F
:10C1A000000000000000000000000000000000008F
:10C1B000000000000000000000000000000000007F
:10C1C000000000000000000000000000000000006F
:10C1D000000000000000000000000000000000005F
:10C1E000000000000000000000000000000000004F
:10C1F000000000000000000000000000000000003F
:10C2000010B5054C237833B9044B13B10448AFF390
:10C2100000800123237010BD0812002000000000E0
:10C22000FCC8010008B5034B1BB103490348AFF339
:10C23000008008BD000000000C120020FCC80100B6
:10C24000A3F5803A704700BF154B002B08BF114B78
:10C250009D46FFF7F5FF00218B460F461148124A15
:10C26000121A00F061FA0C4B002B00D098470B4BD0
:10C27000002B00D098470020002104000D000B483F
:10C2800000F000FA00F02CFA2000290000F0B4F8C9
:10C2900000F0FEF9000008000000000000000000AF
:10C2A0000000022008120020B8120020B9C60100C8
:10C2B0000649074A074B9B1A03DD043BC858D05078
:10C2C000FBDC00F0B1F8FFF7BFFF000008C9010078
:10C2D0009811002008120020FEE7FEE7FEE7FEE7C7
:10C2E000FEE7FEE7FEE7FEE7FEE7FEE70A4B185C27
:10C2F0001F288ABF09494FF0A04100F01F00D1F864
:10C3000004350122824022EA03001340C1F80805E7
:10C31000C1F80C35704700BFD8C8010000030050B9
:10C32000C30706D4830742BF2F4B0C22C3F818273C
:10C33000704710B44FF08043D3F84036DA0723D467
:10C340004FF0A043284903224024C3F81827C3F81C
:10C350002027C1F82427C3F83027C3F808454FF435
:10C3600000724FF48074C3F80845C1F808254FF4F3
:10C3700080528107C3F8082503D51B4B0C22C3F854
:10C3800018275DF8044B70474FF01023D3F804339F
:10C3900003F00703072BD3D1144A0123C2F8043555
:10C3A000D2F80034002BFBD04FF010210020D1F840
:10C3B00004330E4C23F0070343F00403C1F80433A5
:10C3C000C2F80405D4F80034002BFBD0BFF34F8F24
:10C3D0000749084BCA6802F4E0621343CB60BFF31D
:10C3E0004F8F00BFFDE700BF0003005000E0014099
:10C3F00000ED00E00400FA0570B50120094DFFF7DB
:10C400008FFF45F0010500263046FFF76FFF4FF420
:10C41000FA744FF47A40A847013CFAD10136042E51
:10C42000F2D1F0E7E0C8010010B44FF08053D3F828
:10C430003021082A23D0844AD2F8883043F470038C
:10C44000C2F88830BFF34F8FBFF36F8F4FF0805328
:10C45000D3F83021082A00F0B3804FF01023D3F82E
:10C460000022002AC0F2BF80D3F80432002BC0F2B1
:10C47000BA80764B764A1A605DF8044B70474FF0ED
:10C4800080410020C1F80C01724AC1F81001C1F8C6
:10C490003805D3F80414C2F82015D3F80814C2F8EC
:10C4A0002415D3F80C14C2F82815D3F81014C2F8C8
:10C4B0002C15D3F81414C2F83015D3F81814C2F898
:10C4C0003415D3F81C14C2F84015D3F82014C2F860
:10C4D0004415D3F82414C2F84815D3F82814C2F828
:10C4E0004C15D3F82C14C2F85015D3F83014C2F8F8
:10C4F0005415D3F83414C2F86015D3F83814C2F8C0
:10C500006415D3F83C14C2F86815D3F84014C2F887
:10C510006C15D3F83411D3F84434C2F870350529BA
:10C5200042D84D4B5B5C1BB14C4B4D4AC3F88C263B
:10C530004C4B5B5C73B14FF080534B49D3F83021C7
:10C54000FB20C1F81805082AD3F834117FF473AF23
:10C55000052929D8454B5B5CBBB14FF080524FF0A9
:10C560008040D2F85832D0F8E41ED2F8304121F0A1
:10C570000F0103F00F030B43C0F8E43E082CD2F880
:10C5800034117FF458AF05290ED8394B5B5C5BB191
:10C590004FF08053374AD3F830314FF40071082BF5
:10C5A000C2F840167FF447AF4FF08043D3F8002421
:10C5B000D2077FF540AF6FF00102C3F800243AE7DD
:10C5C000D3F83431052B08D94FF010224FF08043B7
:10C5D000D2F80822C3F858253FE7274AD35C002B3E
:10C5E0003FF43BAFF0E7254A0123C2F80435D2F807
:10C5F0000034002BFBD04FF0102312211F4AC3F848
:10C600000012D2F80034002BFBD04FF0102312217F
:10C610001A4AC3F80412D2F80034002BFBD00023CE
:10C620001649C2F80435D1F80034002BFBD0BFF313
:10C630004F8F0549124BCA6802F4E0621343CB6086
:10C64000BFF34F8F00BFFDE700ED00E09811002021
:10C650000090D00300C00040F0C80100005000402E
:10C6600048810300F0C8010000F00040F0C801005C
:10C67000F0C8010000900240E8C8010000E001405D
:10C680000400FA05002301461A46184600F054B883
:10C6900008B5074B044613B1002100F0AFF8054B75
:10C6A0001868836A03B19847204600F007F900BF75
:10C6B000FDC70100F8C8010038B5074D074C641BE1
:10C6C000A4101CB9BDE8384000F000B9013C55F891
:10C6D00024309847F5E700BF04120020081200201C
:10C6E00070B50D4D0D4C641BA4100026A64209D157
:10C6F0000B4D0C4C00F0E4F8641BA4100026A6427D
:10C7000005D170BD55F8043B98470136EEE755F862
:10C71000043B98470136F2E7001200200012002087
:10C72000001200200412002002440346934200D16C
:10C73000704703F8011BF9E72DE9F843DFF8B880EB
:10C740000646D8F800001F460D46914600F0B2F8A4
:10C75000254B1C6834B9254C1C60254B13B11B6854
:10C76000C4F8883063681F2B07DDD8F8000000F09C
:10C77000A3F84FF0FF30BDE8F8834EB3D4F888003B
:10C7800088B91C4B23B9D8F8000000F094F8F0E702
:10C790004FF48470AFF300800028F4D00023C0E988
:10C7A0004033C4F88800636840F8239001229A401F
:10C7B00000EB8301D0F800311343C0F80031022EA2
:10C7C000C1F8807002BFD0F804311343C0F80431BF
:10C7D0006368D8F800005A1C0233626044F82350A2
:10C7E00000F06AF80020C6E7B012002024120020F2
:10C7F0000000000000000000FC1100202DE9F74FB0
:10C80000DFF8A89000918046D9F80000DFF8A0A0DA
:10C8100000F050F8DAF8004034B9D9F8000003B05D
:10C82000BDE8F04F00F048B86568D4F888706E1E17
:10C83000013504EB850507F1800B002EEDDB009B35
:10C8400043B117B9013E043DF7E75BF82620009B92
:10C850009A42F7D161682A680139B14216BF0023B4
:10C8600066602B60002AEDD0636801933FB1D7F872
:10C870000011012303FA06FC1CEA010F09D19047BD
:10C880006168019BDAF800209942C3D19442D9D063
:10C89000C0E7D7F8040157F826101CEA000F02D1B0
:10C8A00040469047ECE708469047E9E7FC11002036
:10C8B000B01200207047704770470000FEE700BFCD
:10C8C000F8B500BFF8BC08BC9E467047F8B500BF7D
:10C8D000F8BC08BC9E4670470608290C0000000002
:10C8E0000338FDD87047000000000000010100007F
:10C8F00001000000000000009C110020000000006A
:08C9000040F9FF7F0100000077
:10C908000090D003000000000000000000000000BC
:10C91800000000000000000000000000000000000F
:10C9280000000000000000000000000000000000FF
:10C9380000000000000000000000000000000000EF
:10C9480000000000000000000000000000000000DF
:10C9580000000000000000000000000000000000CF
:10C9680000000000B412002025C2010001C201002D
:040000031000C2B176
:00000001FF
